:10000000A9C0C3C0C2C0C1C0C0C052C5BEC0D7C154
:10001000BCC0BBC0BAC0B9C0B8C0B7C0B6C0B5C01C
:10002000B4C0B3C0B2C0B1C0B0C00D0A000D0A0068
:100030000C0754696E792052474220302E312C2013
:100040006769746875622E636F6D2F70756C73616C
:10005000723235362F74696E79726762200D0A46E6
:10006000756C6C2070726F746F636F6C2073706549
:1000700063696669636174696F6E20617661696C3A
:1000800061626C65206174204769746875622E0D29
:100090000A436F6D70696C65643A2053756E204A2F
:1000A000616E2030352030323A33393A31372032E0
:1000B0003031340D0A00234D6F64653A00234465E6
:1000C0006C61793A00234175746F736176653A000B
:1000D000656E61626C65640064697361626C65641D
:1000E000002343757272656E742052474220566138
:1000F0006C7565733A002343757272656E7420489F
:10010000534C2056616C7565733A002343757272C7
:10011000656E7420524742204F66667365742056A0
:10012000616C7565733A002343757272656E742055
:1001300052474220436C697070696E672056616C4B
:100140007565733A000D0A4552520D0A000D0A4FAB
:100150004B0D0A0011241FBECFE5D1E0DEBFCDBF9D
:1001600010E0A0E6B0E0E6E6FEE002C005900D92E9
:10017000A239B107D9F720E0A2E9B0E001C01D9291
:10018000A03CB207E1F768D46CC63ACFE0E6F1E0F4
:1001900020E030E004C0929182912827392780E046
:1001A000E23CF807C0F7C90108958F929F92AF9281
:1001B000BF92CF92DF92EF92FF920F931F938091A5
:1001C000960090919700A0919800B0919900892B8A
:1001D0008A2B8B2B59F4DADFA0E0B0E080939600F5
:1001E00090939700A0939800B093990080919A0003
:1001F00090919B00A0919C00B0919D00892B8A2B2F
:100200008B2B59F4C3DFA0E0B0E080939A00909369
:100210009B00A0939C00B0939D00809096009090CE
:100220009700A0909800B0909900C501B40188276C
:10023000992729E630E940E050E010D56B017C01B8
:100240004501AA24BB24C80CD91CEA1CFB1CC09283
:100250009600D0929700E0929800F09299008090DA
:100260009A0090909B00A0909C00B0909D00C501CA
:10027000B4018827992720E536E440E050E0EED429
:100280004501AA24BB24680D791D8A1D9B1D60931E
:100290009A0070939B0080939C0090939D00960120
:1002A00011270027060F171F281F391FB801C90182
:1002B0001F910F91FF90EF90DF90CF90BF90AF9084
:1002C0009F908F900895CF92DF92EF92FF921F93AD
:1002D000CF93DF93EB01142FC82ED12CE12CF12CFE
:1002E00064DFA7019601D3D46C0F7D1F77FD08C092
:1002F0006F3F710519F014F06FEF70E0862F01C0A9
:1003000080E0811769F3DF91CF911F91FF90EF900B
:10031000DF90CF90089587B38C6187BB83EF80BF58
:1003200083E083BF81EF8FBD8BE08EBD8FEF86BFF3
:100330008FEF90E09BBD8ABD99BD88BD08952FEFDA
:1003400030E0F901E81BF109F9BDE8BD409546BF71
:10035000261B31093BBD2ABD089583B1866083B950
:1003600088E18AB9579A12B881E889B98AE290E09F
:100370009093B5008093B40008955D9BFECF8CB937
:100380000895CF93DF93EC0104C02196FC01849182
:10039000F4DFCE01FE0124912111F7CFDF91CF913F
:1003A0000895CF93DF93EC0101C0E7DF89918111BC
:1003B000FCCFDF91CF9108958DE290E0E2CF1F92C4
:1003C0000F920FB60F9211242F933F934F935F9389
:1003D0006F937F938F939F93AF93BF93EF93FF930D
:1003E0008CB190919300E92FF0E0EC55FF4F8083A2
:1003F0009F5F90939300E92FF0E0EC55FF4F108240
:100400008CB99F3020F48A3011F08D3099F410921D
:1004100093008091B4009091B500B3DF81E08093A8
:100420009200E0919400F0919500309719F084EAE1
:1004300090E00995FF91EF91BF91AF919F918F91BE
:100440007F916F915F914F913F912F910F900FBED0
:100450000F901F9018954F925F926F927F928F929C
:100460009F92AF92BF92CF92DF92EF92FF920F9343
:100470001F93CF93DF936C01EB01FC010281602F8E
:1004800070E080E090E0218130E040E050E007FD46
:100490000CC03F5F4F4F5F4FE1D3BB2797FDBA952D
:1004A000A92F982F872F7C0116C04B015C01820E6B
:1004B000931EA41EB51EBA2CA92C982C8824CED32A
:1004C000861A970AA80AB90A892C9A2CAB2CBB2445
:1004D000A7FCBA9474011E141F0424F01A82198216
:1004E000188271C010E0000F111F0E191F0948017A
:1004F000AA2497FCA094BA2CF601808190E066E0D3
:1005000070E09AD3C92EDD24C7FCDA942701662453
:1005100057FC6094762C9C01442737FD4095542F5E
:10052000C601AA2797FDA095BA2FBA2FA92F982FF9
:100530008827281B390B4A0B5B0BC301B2018ED3F2
:10054000A3019201281939094A095B0987D3A3013C
:100550009201BFD3BB2757FDBA95A52F942F832FA8
:10056000880E991EAA1EBB1E481A590A6A0A7B0ADF
:10057000F3E0CF16D104E9F04CF4E1E0CE16D1045B
:1005800081F0F2E0CF16D10449F40FC084E0C81620
:10059000D10491F0E5E0CE16D10491F0E882898291
:1005A00002C04882E9820A830EC00883E9828A82F7
:1005B0000AC00883498202C088820983EA8203C094
:1005C000E88209834A82DF91CF911F910F91FF90BA
:1005D000EF90DF90CF90BF90AF909F908F907F90E3
:1005E0006F905F904F90089580E390E0CACEEF92B5
:1005F000FF920F931F93CF93DF9300D000D0CDB71E
:10060000DEB78C01FC01E080F18043E050E0B701EF
:10061000CE01019696D31C82F3E0EF0EF11CF80197
:10062000F182E082CE0101966FD30F900F900F9070
:100630000F90DF91CF911F910F91FF90EF90089550
:100640000F931F93CF93DF9300D000D0CDB7DEB7C9
:100650008C014AE050E0BE016F5F7F4FFC0180815A
:1006600090E098D3CE0101969CDEA6DE4AE050E0F1
:10067000BE016F5F7F4FF801818190E08BD3CE0187
:1006800001968FDE99DE4AE050E0BE016F5F7F4F3A
:10069000F801828190E07ED3CE01019682DE8CDE6D
:1006A0000F900F900F900F90DF91CF911F910F91AE
:1006B00008950F931F93CF93DF9300D000D000D005
:1006C000CDB7DEB78C0164E670E04AD39E838D839C
:1006D0000097B1F021E02093630005969E838D83FF
:1006E000CE01059684DF8093B600CE0105967FDFAC
:1006F0008093B700CE0105967ADF8093B8001AC0C8
:100700006AE670E0C8012CD39E838D830097A1F028
:1007100003969E838D83CE01059669DF80939E00AC
:10072000CE01059664DF80939F00CE0105965FDFC2
:100730008093A00081E0E4C06EE670E0C80110D3B1
:100740009E838D83009799F003969E838D83CE01BF
:1007500005964DDF8093A100CE01059648DF80937A
:10076000A200CE01059643DF8093A300E3CF62E7AA
:1007700070E0C801F5D29E838D83009749F00396FF
:100780009E838D83CE01059632DF80936200D2CFA7
:1007900066E770E0C801E4D29E838D83009709F17B
:1007A00005969E838D83CE01059621DF18161906C6
:1007B00014F48093B900CE01059619DF18161906B6
:1007C00014F48093BA00CE01059611DF18161906AD
:1007D00014F48093BB0066EB70E089EB90E03BDEA5
:1007E000A9CF6CE770E0C801BBD29E838D830097D0
:1007F00049F004969E838D83CE010596F8DE8093A2
:10080000630098CF61E870E0C801AAD29E838D830F
:10081000892B09F455C0D0DD86EB90E0B2DDCCDD4C
:100820004AE050E0BE016F5F7F4F8091630090E02F
:10083000B1D2CE010196B5DDBFDDBEDD8DEB90E01E
:10084000A0DDBADD4AE050E0BE016F5F7F4F8091CE
:10085000620090E09FD2CE010196A3DDADDDACDD5C
:1008600085EC90E08EDDA8DD80916000882319F092
:1008700080ED90E002C088ED90E083DD9DDD9CDDA1
:1008800081EE90E07EDD98DD86EB90E0D9DE94DDB0
:1008900086EF90E076DD90DD89EB90E0D1DE8CDDB7
:1008A0008BE091E06EDD88DD81EA90E0C9DE84DDD9
:1008B00087E291E066DD80DD8EE990E0C1DE3ACF2F
:1008C00068E870E0C8014CD29E838D83892B11F0BB
:1008D0008BDE30CF6DE870E0C80142D2009779F02E
:1008E00004969E838D83CE01059681DE882321F0B8
:1008F00081E08093600004C0109260001BCF80E014
:1009000026960FB6F894DEBF0FBECDBFDF91CF9114
:100910001F910F9108956091630080E190E06BD288
:100920006091B60081E190E066D26091B70082E10B
:1009300090E061D26091B80083E190E05CD2609178
:10094000B90084E190E057D26091BA0085E190E06F
:1009500052D26091BB0086E190E04DD26091A1003F
:1009600087E190E048D26091A20088E190E043D214
:100970006091A30089E190E03ED2609162008AE13B
:1009800090E039D260919E008BE190E034D260918A
:100990009F008CE190E02FD26091A0008DE190E06B
:1009A0002AC2F89486DE811104C085E491E0E9DC76
:1009B00007C08DE491E0E5DC809160008111ABDF40
:1009C0007894089580E190E00ED2809363008823AC
:1009D00009F441C081E190E006D28093B60082E143
:1009E00090E001D28093B70083E190E0FCD1809346
:1009F000B80084E190E0F7D18093B90085E190E000
:100A0000F2D18093BA0086E190E0EDD18093BB00F3
:100A100087E190E0E8D18093A10088E190E0E3D104
:100A20008093A20089E190E0DED18093A3008AE167
:100A300090E0D9D1809362008BE190E0D4D1809393
:100A40009E008CE190E0CFD180939F008DE190E0FB
:100A5000CAD18093A000089580E481BB7EDC5BDC7A
:100A6000B1DF8FEF90E099BD88BD2FEF26BF9BBD12
:100A70008ABD8091630081110FC083E08093630081
:100A80008EEF8093BA008FE78093BB0020939E0087
:100A900020939F002093A000A7DD81ED94E0909328
:100AA00095008093940089B7806889BF7894FFCFC0
:100AB0001F920F920FB60F9211242F933F934F93D3
:100AC0005F936F937F938F939F93AF93BF93EF93B6
:100AD000FF9380916100982F915090936100811154
:100AE0009AC080916200809361008091630082309F
:100AF00009F053C04091BC008091B60048130AC071
:100B00006091A100772767FD709580919E00DBDBE7
:100B10008093BC004091BD008091B70048130AC08B
:100B20006091A200772767FD709580919F00CBDBD5
:100B30008093BD004091BE008091B80048130AC068
:100B40006091A300772767FD70958091A000BBDBC3
:100B50008093BE008091B6009091BC00891710F47C
:100B600091E001C09FEF890F8093B6008091B7009C
:100B70009091BD00891710F491E001C09FEF890F9B
:100B80008093B7008091B8009091BE00891710F44F
:100B900091E001C09FEF890F31C0833059F48091FB
:100BA000B9008F5F8093B90066EB70E089EB90E04D
:100BB00052DC26C0843021F56091A100772767FDC3
:100BC00070954091B60080919E007DDB8093B600C9
:100BD0006091A200772767FD70954091B7008091E2
:100BE0009F0071DB8093B7006091A300772767FDBA
:100BF00070954091B8008091A00065DB8093B800AB
:100C00004091B8006091B7008091B60098DB82B344
:100C100090E4892782BBFF91EF91BF91AF919F91A3
:100C20008F917F916F915F914F913F912F910F9095
:100C30000FBE0F901F9018955527002480FF02C00B
:100C4000060E571F660F771F6115710521F09695E7
:100C50008795009799F7952F802D0895FF27EE2708
:100C6000BB27AA2760FF04C0A20FB31FE41FF51F14
:100C7000220F331F441F551F9695879577956795CB
:100C800089F70097760771F7CF01BD010895A1E2BA
:100C90001A2EAA1BBB1BFD010DC0AA1FBB1FEE1FF6
:100CA000FF1FA217B307E407F50720F0A21BB30B41
:100CB000E40BF50B661F771F881F991F1A9469F7BD
:100CC00060957095809590959B01AC01BD01CF0119
:100CD0000895052E97FB16F4009406D057FD0CD00E
:100CE000D6DF07FC09D07EF49095809570956195CC
:100CF0007F4F8F4F9F4F0895509540953095219588
:100D00003F4F4F4F5F4F0895FC0188279927E89484
:100D100021912032E9F3293010F02E30C8F32B3224
:100D200039F02D3231F4689403C053D0820F911DF5
:100D3000219120532A30C8F31EF4909581959F4F3E
:100D40000895FB01DC014150504048F001900D92A4
:100D50000020C9F701C01D9241505040E0F70895AE
:100D6000FB0151915523A9F0BF01DC014D914517BD
:100D70004111E1F759F4CD010190002049F04D9166
:100D800040154111C9F3FB014111EFCF81E090E023
:100D900001970895FB019F01E8944230BCF0453271
:100DA000ACF44A3029F497FB1EF4909581959F4F3F
:100DB000642F772742D0805D8A330CF0895D819360
:100DC000CB010097A9F716F45DE251931082C90197
:100DD00024C0BC01880F991F880F991F860F971F89
:100DE000880F991F0895E199FECF1FBA8EBBE09A34
:100DF00099278DB30895262FE199FECF1FBA8EBB98
:100E0000E09A81500DB2021639F01CBA2DBB0FB614
:100E1000F894E29AE19A0FBE0895DC01FC01672F75
:100E200071917723E1F7329704C07C916D937083C1
:100E30006291AE17BF07C8F30895AA1BBB1B51E10F
:100E400007C0AA1FBB1FA617B70710F0A61BB70B3A
:100E5000881F991F5A95A9F780959095BC01CD01DF
:060E60000895F894FFCF95
:100E660001646402535247423A00534D3A00534FCD
:100E76003A0053443A005348534C3A00534D443ACF
:100E8600007374617475730068656C700053415625
:020E96003A0020
:00000001FF
