:10000000A9C0C3C0C2C0C1C0C0C00DC5BEC0D8C198
:10001000BCC0BBC0BAC0B9C0B8C0B7C0B6C0B5C01C
:10002000B4C0B3C0B2C0B1C0B0C00D0A000D0A0068
:100030000C0754696E792052474220302E312C2013
:100040006769746875622E636F6D2F70756C73616C
:10005000723235362F74696E79726762200D0A46E6
:10006000756C6C2070726F746F636F6C2073706549
:1000700063696669636174696F6E20617661696C3A
:1000800061626C65206174204769746875622E0D29
:100090000A436F6D70696C65643A20536174204A3D
:1000A000616E2030342031353A32363A33302032E6
:1000B0003031340D0A00234D6F64653A00234465E6
:1000C0006C61793A00234175746F736176653A000B
:1000D000656E61626C65640064697361626C65641D
:1000E000002343757272656E742052474220566138
:1000F0006C7565733A002343757272656E7420489F
:1001000053562056616C7565733A002343757272BD
:10011000656E7420524742204F66667365742056A0
:10012000616C7565733A002343757272656E742055
:1001300052474220436C697070696E672056616C4B
:100140007565733A000D0A4552520D0A000D0A4FAB
:100150004B0D0A0011241FBECFE5D1E0DEBFCDBF9D
:1001600010E0A0E6B0E0EAE9FDE002C005900D92E3
:10017000A639B107D9F720E0A6E9B0E001C01D9289
:10018000A43CB207E1F724D406C63ACFE0E6F1E09A
:1001900020E030E004C0929182912827392780E046
:1001A000E63CF807C0F7C90108958F929F92AF927D
:1001B000BF92CF92DF92EF92FF920F931F938091A5
:1001C0009A0090919B00A0919C00B0919D00892B7A
:1001D0008A2B8B2B59F4DADFA0E0B0E080939A00F1
:1001E00090939B00A0939C00B0939D0080919E00F3
:1001F00090919F00A091A000B091A100892B8A2B23
:100200008B2B59F4C3DFA0E0B0E080939E00909365
:100210009F00A093A000B093A10080909A009090BE
:100220009B00A0909C00B0909D00C501B401882760
:10023000992729E630E940E050E0B9D46B017C0110
:100240004501AA24BB24C80CD91CEA1CFB1CC09283
:100250009A00D0929B00E0929C00F0929D008090CA
:100260009E0090909F00A090A000B090A100C501BA
:10027000B4018827992720E536E440E050E097D480
:100280004501AA24BB24680D791D8A1D9B1D60931E
:100290009E0070939F008093A0009093A100960110
:1002A00011270027060F171F281F391FB801C90182
:1002B0001F910F91FF90EF90DF90CF90BF90AF9084
:1002C0009F908F900895CF92DF92EF92FF921F93AD
:1002D000CF93DF93EB01142FC82ED12CE12CF12CFE
:1002E00064DFA701960188D46C0F7D1F77FD08C0DD
:1002F0006F3F710519F014F06FEF70E0862F01C0A9
:1003000080E0811769F3DF91CF911F91FF90EF900B
:10031000DF90CF90089587B38C6187BB8D9A83EF70
:1003200080BF83E083BF81EF8FBD8BE08EBD8FEFF9
:1003300086BF8FEF90E09BBD8ABD99BD88BD0895B3
:100340002FEF30E0F901E81BF109F9BDE8BD409558
:1003500046BF261B31093BBD2ABD089583B1866087
:1003600083B988E18AB9579A12B881E889B98AE2D3
:1003700090E09093B9008093B80008955D9BFECF04
:100380008CB90895CF93DF93EC0104C02196FC0152
:100390008491F4DFCE01FE0124912111F7CFDF918A
:1003A000CF910895CF93DF93EC0101C0E7DF8991EE
:1003B0008111FCCFDF91CF9108958DE290E0E2CFE3
:1003C0001F920F920FB60F9211242F933F934F93CA
:1003D0005F936F937F938F939F93AF93BF93EF93AD
:1003E000FF938CB190919700E92FF0E0E855FF4F13
:1003F00080839F5F90939700E92FF0E0E855FF4FCF
:1004000010828CB99F3020F48A3011F08D3099F42D
:10041000109297008091B8009091B900B3DF81E00D
:1004200080939600E0919800F0919900309719F030
:1004300088EA90E00995FF91EF91BF91AF919F916C
:100440008F917F916F915F914F913F912F910F907D
:100450000FBE0F901F901895CF92DF92FF920F93CF
:100460001F93CF93DF93A62FC72FF82E711103C0D0
:10047000682F782F60C0862F6BE2B2D3482FD0E070
:10048000EFEFF0E0BF016C1B7D0B8F2D90E07DD373
:10049000292F332727FD3A95D22E842F90E065ED42
:1004A0007FEF73D38A0F66E067D3082F10E0CE0189
:1004B000B8016BD3892F990F990BBF01681B790B7A
:1004C0008F2D90E062D3A92FBB27A7FDBA95CA2E26
:1004D000BF01601B710BCE0158D3892F990F990B67
:1004E000BF01681B790B8F2D90E04FD3892F990F97
:1004F000990B423071F028F4442341F0413099F4D3
:1005000016C0433051F0443071F409C06F2DA82F4C
:1005100010C0622FAF2D282F0CC0622F02C0682F91
:10052000A22F2F2D06C06F2DAD2D2C2D02C06A2FAE
:10053000AF2D7A2F822FDF91CF911F910F91FF90D6
:10054000DF90CF90089580E390E01CCFEF92FF9270
:100550000F931F93CF93DF9300D000D0CDB7DEB7BA
:100560008C01FC01E080F18043E050E0B701CE0156
:10057000019681D31C82F3E0EF0EF11CF801F182A9
:10058000E082CE0101965AD38093BC009C013327B0
:10059000C9010F900F900F900F90DF91CF911F9195
:1005A0000F91FF90EF9008950F931F93CF93DF93D8
:1005B00000D000D0CDB7DEB78C014AE050E0BE01DC
:1005C0006F5F7F4FFC01808190E07ED3CE0101966A
:1005D000E9DEF3DE4AE050E0BE016F5F7F4FF801D5
:1005E000818190E071D3CE010196DCDEE6DE4AE047
:1005F00050E0BE016F5F7F4FF801828190E064D3CD
:10060000CE010196CFDED9DE0F900F900F900F90A4
:10061000DF91CF911F910F9108950F931F93CF9367
:10062000DF9300D000D000D0CDB7DEB78C0164E6F8
:1006300070E030D39E838D830097B1F022E0209349
:10064000630005969E838D83CE0105967FDF8093A0
:10065000BA00CE0105967ADF8093BB00CE010596E5
:1006600075DF8093BC001AC06AE670E0C80112D33F
:100670009E838D830097A1F003969E838D83CE0188
:10068000059664DF8093A200CE0105965FDF80931C
:10069000A300CE0105965ADF8093A40081E0E2C05A
:1006A0006EE670E0C801F6D29E838D83009799F0C4
:1006B00003969E838D83CE01059648DF8093A50027
:1006C000CE01059643DF8093A600CE0105963EDF5E
:1006D0008093A700E3CF62E770E0C801DBD29E837E
:1006E0008D83009749F003969E838D83CE010596F6
:1006F0002DDF8093C300D2CF66E770E0C801CAD275
:100700009E838D83009749F003969E838D83CE014F
:1007100005961CDF80936200C1CF6AE770E0C801D4
:10072000B9D29E838D83009771F004969E838D834A
:10073000CE0105960BDF8093BE00CE01059606DF45
:100740008093BF00ABCF6FE770E0C801A3D29E8358
:100750008D83009749F004969E838D83CE01059684
:10076000F5DE809363009ACF64E870E0C80192D20E
:100770009E838D83892B09F455C01FDE86EB90E0A4
:1007800001DE1BDE4AE050E0BE016F5F7F4F8091CB
:10079000630090E099D2CE01019604DE0EDE0DDEFC
:1007A0008DEB90E0EFDD09DE4AE050E0BE016F5FC7
:1007B0007F4F8091620090E087D2CE010196F2DDFA
:1007C000FCDDFBDD85EC90E0DDDDF7DD8091600098
:1007D000882319F080ED90E002C088ED90E0D2DD32
:1007E000ECDDEBDD81EE90E0CDDDE7DD8AEB90E046
:1007F000DBDEE3DD86EF90E0C5DDDFDD8DEB90E055
:10080000D3DEDBDD8BE091E0BDDDD7DD85EA90E076
:10081000CBDED3DD87E291E0B5DDCFDD82EA90E08B
:10082000C3DE3CCF6BE870E0C80134D29E838D8379
:10083000892B11F088DE32CF60E970E0C8012AD23E
:10084000009779F004969E838D83CE0105967EDE17
:10085000882321F081E08093600004C01092600042
:100860001DCF80E026960FB6F894DEBF0FBECDBF39
:10087000DF91CF911F910F9108956091630080E106
:1008800090E053D26091BA0081E190E04ED2609145
:10089000BB0082E190E049D26091BC0083E190E02E
:1008A00044D26091BD0084E190E03FD26091BE00EF
:1008B00085E190E03AD26091BF0086E190E035D2C8
:1008C0006091A50087E190E030D26091A60088E1B8
:1008D00090E02BD26091A70089E190E026D2609150
:1008E00062008AE190E021D26091A2008BE190E069
:1008F0001CD26091A3008CE190E017D26091A4001B
:100900008DE190E012D26091C3008EE190E00DC2C3
:10091000F89483DE811104C085E491E033DD07C0E3
:100920008DE491E02FDD809160008111A6DF789445
:10093000089580E190E0F1D180936300882309F469
:1009400046C081E190E0E9D18093BA0082E190E075
:10095000E4D18093BB0083E190E0DFD18093BC00C1
:1009600084E190E0DAD18093BD0085E190E0D5D1BB
:100970008093BE0086E190E0D0D18093BF0087E1F4
:1009800090E0CBD18093A50088E190E0C6D1809320
:10099000A60089E190E0C1D18093A7008AE190E0B0
:1009A000BCD1809362008BE190E0B7D18093A2002C
:1009B0008CE190E0B2D18093A3008DE190E0ADD1C5
:1009C0008093A4008EE190E0A8D18093C3000895A5
:1009D00080E481BBC3DC9FDCACDF8FEF90E099BD8E
:1009E00088BD2FEF26BF9BBD8ABD8091630081111A
:1009F0000EC083E0809363008EEF8093BE0020934F
:100A0000BF002093A2002093A3002093A4009BDDAD
:100A100088E894E0909399008093980089B7806863
:100A200089BF7894FFCF1F920F920FB60F921124B7
:100A30002F933F934F935F936F937F938F939F93E6
:100A4000AF93BF93EF93FF9380916100982F9150E4
:100A50009093610081117FC080916200809361005A
:100A600080916300813009F053C04091C0008091B3
:100A7000BA0048130AC06091A500772767FD7095FA
:100A80008091A20020DC8093C0004091C100809141
:100A9000BB0048130AC06091A600772767FD7095D8
:100AA0008091A30010DC8093C1004091C20080912E
:100AB000BC0048130AC06091A700772767FD7095B6
:100AC0008091A40000DC8093C2008091BA009091D4
:100AD000C000891710F491E001C09FEF890F809347
:100AE000BA008091BB009091C100891710F491E089
:100AF00001C09FEF890F8093BB008091BC00909153
:100B0000C200891710F491E001C09FEF890F12C055
:100B1000833091F48091BD008F5F8093BD00609120
:100B2000BD007091BE008091BF0096DC6093BA005A
:100B30007093BB008093BC004091BC006091BB00EF
:100B40008091BA00FDDB8091C30080958CBF82B399
:100B500090E4892782BBFF91EF91BF91AF919F9164
:100B60008F917F916F915F914F913F912F910F9056
:100B70000FBE0F901F901895002480FD060E660F83
:100B800011F08695D1F7802D08955527002480FF18
:100B900002C0060E571F660F771F6115710521F001
:100BA00096958795009799F7952F802D0895FF27A3
:100BB000EE27BB27AA2760FF04C0A20FB31FE41FC4
:100BC000F51F220F331F441F551F96958795779564
:100BD000679589F70097760771F7CF01BD010895F2
:100BE000991B79E004C0991F961708F0961B881F7F
:100BF0007A95C9F780950895A1E21A2EAA1BBB1B0E
:100C0000FD010DC0AA1FBB1FEE1FFF1FA217B307D8
:100C1000E407F50720F0A21BB30BE40BF50B661FEE
:100C2000771F881F991F1A9469F7609570958095B2
:100C300090959B01AC01BD01CF010895FC0188276F
:100C40009927E89421912032E9F3293010F02E30D1
:100C5000C8F32B3239F02D3231F4689403C053D0ED
:100C6000820F911D219120532A30C8F31EF49095D4
:100C700081959F4F0895FB01DC014150504048F0A1
:100C800001900D920020C9F701C01D9241505040C3
:100C9000E0F70895FB0151915523A9F0BF01DC0154
:100CA0004D9145174111E1F759F4CD010190002014
:100CB00049F04D9140154111C9F3FB014111EFCFAE
:100CC00081E090E001970895FB019F01E894423094
:100CD000BCF04532ACF44A3029F497FB1EF49095F1
:100CE00081959F4F642F772742D0805D8A330CF027
:100CF000895D8193CB010097A9F716F45DE25193CA
:100D00001082C90124C0BC01880F991F880F991F48
:100D1000860F971F880F991F0895E199FECF1FBA7C
:100D20008EBBE09A99278DB30895262FE199FECFC7
:100D30001FBA8EBBE09A81500DB2021639F01CBA70
:100D40002DBB0FB6F894E29AE19A0FBE0895DC012C
:100D5000FC01672F71917723E1F7329704C07C91F2
:100D60006D9370836291AE17BF07C8F30895AA1BF5
:100D7000BB1B51E107C0AA1FBB1FA617B70710F086
:100D8000A61BB70B881F991F5A95A9F780959095B8
:0A0D9000BC01CD010895F894FFCFD7
:100D9A0001646401535247423A00534D3A00534F9B
:100DAA003A0053573A0053443A005353563A0053C1
:100DBA004D443A007374617475730068656C700011
:060DCA005341563A0000FF
:00000001FF
