:10000000CAC0E4C0E3C0E2C0E1C068C5DFC0FAC155
:10001000DDC0DCC0DBC0DAC0D9C0D8C0D7C0D6C014
:10002000D5C0D4C0D3C0D2C0D1C00D0A00234D6FFB
:1000300064653A002344656C61793A002341757424
:100040006F736176653A00656E61626C6564006429
:10005000697361626C6564002343757272656E74C6
:10006000205247422056616C7565733A00234375F0
:100070007272656E74204853562056616C756573B4
:100080003A002343757272656E7420524742204FC6
:1000900066667365742056616C7565733A00234318
:1000A000757272656E742052474220436C6970709D
:1000B000696E672056616C7565733A000D0A436876
:1000C00065636B206769746875622E636F6D2F704E
:1000D000756C7361723235362F74696E797267622E
:1000E00020666F722070726F746F636F6C20737014
:1000F0006563696669636174696F6E2E0D0A53707A
:10010000616365206F6E2063686970206973207475
:100110006F6F206C6F7720746F20696E636C7564ED
:10012000652066756C6C20646F63756D656E7461B7
:1001300074696F6E2E0D0A000D0A4F4B0D0A000DEB
:100140000A4552520D0A000C0754696E7920524735
:100150004220302E312C2068747470733A2F2F6730
:1001600069746875622E636F6D2F70756C73617240
:100170003235362F74696E79726762200D0A436FCB
:100180006D70696C65643A204A616E2020332032BC
:100190003031340D0A0011241FBECFE5D1E0DEBF9F
:1001A000CDBF10E0A0E6B0E0E0E5FEE002C00590C3
:1001B0000D92AA39B107D9F720E0AAE9B0E001C051
:1001C0001D92AA3CB207E1F726D440C619CF089584
:1001D000E0E6F1E020E030E004C09291829128272F
:1001E000392780E0EC3CF807C0F7C90108958F92E9
:1001F0009F92AF92BF92CF92DF92EF92FF920F93B6
:100200001F9380919C0090919D00A0919E00B091C1
:100210009F00892B8A2B8B2B59F4DADFA0E0B0E00A
:1002200080939C0090939D00A0939E00B0939F00AC
:100230008091A0009091A100A091A200B091A30094
:10024000892B8A2B8B2B59F4C3DFA0E0B0E080937D
:10025000A0009093A100A093A200B093A30080906F
:100260009C0090909D00A0909E00B0909F00C501C2
:10027000B4018827992729E630E940E050E0F2D41C
:100280006B017C014501AA24BB24C80CD91CEA1CC3
:10029000FB1CC0929C00D0929D00E0929E00F092C8
:1002A0009F008090A0009090A100A090A200B0902C
:1002B000A300C501B4018827992720E536E440E072
:1002C00050E0D0D44501AA24BB24680D791D8A1DB5
:1002D0009B1D6093A0007093A1008093A200909357
:1002E000A300960111270027060F171F281F391F8B
:1002F000B801C9011F910F91FF90EF90DF90CF904F
:10030000BF90AF909F908F900895CF92DF92EF9221
:10031000FF921F93CF93DF93EB01142FC82ED12CA4
:10032000E12CF12C64DFA7019601C1D46C0F7D1F75
:1003300077FD08C06F3F710519F014F06FEF70E0A2
:10034000862F01C080E0811769F3DF91CF911F9163
:10035000FF90EF90DF90CF90089587B38C6187BBBB
:100360008D9A83EF80BF83E083BF81EF8FBD8BE0E9
:100370008EBD8FEF86BF8FEF90E09BBD8ABD99BD8C
:1003800088BD08952FEF30E0F901E81BF109F9BDB0
:10039000E8BD409546BF261B31093BBD2ABD0895E7
:1003A00083B1866083B988E18AB9579A12B881E827
:1003B00089B98AE290E09093C9008093C8000895BB
:1003C0005D9BFECF8CB90895CF93DF93EC0104C001
:1003D0002196FC018491F4DFCE01FE0124912111CC
:1003E000F7CFDF91CF910895CF93DF93EC0101C058
:1003F000E7DF89918111FCCFDF91CF91089586E6E7
:1004000090E0F2CF1F920F920FB60F9211242F930C
:100410003F934F935F936F937F938F939F93AF938C
:10042000BF93EF93FF938CB190919B00E92FF0E085
:10043000E655FF4F80839F5F90939B00E92FF0E08C
:10044000E655FF4F10828CB99F3020F48A3011F0AE
:100450008D3089F410929B008091C8009091C90062
:10046000B3DF81E080939A00E0916400F091650031
:100470008AEA90E00995FF91EF91BF91AF919F912A
:100480008F917F916F915F914F913F912F910F903D
:100490000FBE0F901F901895CF92DF92FF920F938F
:1004A0001F93CF93DF93A62FC72FF82E711103C090
:1004B000682F782F60C0862F6BE2EDD3482FD0E0F5
:1004C000EFEFF0E0BF016C1B7D0B8F2D90E0B8D3F8
:1004D000292F332727FD3A95D22E842F90E065ED02
:1004E0007FEFAED38A0F66E0A2D3082F10E0CE01D3
:1004F000B801A6D3892F990F990BBF01681B790BFF
:100500008F2D90E09DD3A92FBB27A7FDBA95CA2EAA
:10051000BF01601B710BCE0193D3892F990F990BEB
:10052000BF01681B790B8F2D90E08AD3892F990F1B
:10053000990B423071F028F4442341F0413099F492
:1005400016C0433051F0443071F409C06F2DA82F0C
:1005500010C0622FAF2D282F0CC0622F02C0682F51
:10056000A22F2F2D06C06F2DAD2D2C2D02C06A2F6E
:10057000AF2D7A2F822FDF91CF911F910F91FF9096
:10058000DF90CF9008950F931F93CF93DF9300D008
:1005900000D0CDB7DEB78C014AE050E0BE016F5FFE
:1005A0007F4FFC01808190E0EAD3CE0101961CDFF1
:1005B00026DF4AE050E0BE016F5F7F4FF801818186
:1005C00090E0DDD3CE0101960FDF19DF4AE050E065
:1005D000BE016F5F7F4FF801828190E0D0D3CE01E2
:1005E000019602DF0CDF0F900F900F900F90DF91BC
:1005F000CF911F910F9108956091630080E190E089
:10060000EFD36091BC0081E190E0EAD36091BD003E
:1006100082E190E0E5D36091BE0083E190E0E0D319
:100620006091C10084E190E0DBD36091C20085E17C
:1006300090E0D6D36091C30086E190E0D1D3609181
:10064000A70087E190E0CCD36091A80088E190E01A
:10065000C7D36091A90089E190E0C2D360916200A4
:100660008AE190E0BDD36091A4008BE190E0B8D323
:100670006091A5008CE190E0B3D36091A6008DE17C
:1006800090E0AED36091C7008EE190E0A9C380E115
:1006900090E09ED380936300882309F446C081E1F3
:1006A00090E096D38093BC0082E190E091D3809358
:1006B000BD0083E190E08CD38093BE0084E190E0A4
:1006C00087D38093C10085E190E082D38093C200FC
:1006D00086E190E07DD38093C30087E190E078D3FA
:1006E0008093A70088E190E073D38093A80089E10C
:1006F00090E06ED38093A9008AE190E069D3809363
:1007000062008BE190E064D38093A4008CE190E0E0
:100710005FD38093A5008DE190E05AD38093A6002B
:100720008EE190E055D38093C7000895EF92FF9239
:100730000F931F93CF93DF9300D000D0CDB7DEB7D8
:100740008C01FC01E080F18043E050E0B701CE0174
:100750000196ECD21C82F3E0EF0EF11CF801F1825D
:10076000E082CE010196C5D28093BE009C01332762
:10077000C9010F900F900F900F90DF91CF911F91B3
:100780000F91FF90EF9008950F931F93CF93DF93F6
:1007900000D000D000D0CDB7DEB78C0169E670E0A4
:1007A000D4D29E838D830097B1F022E02093630022
:1007B00005969E838D83CE010596B8DF8093BC009D
:1007C000CE010596B3DF8093BD00CE010596AEDF66
:1007D0008093BE001AC06FE670E0C801B6D29E8357
:1007E0008D830097A1F003969E838D83CE0105969D
:1007F0009DDF8093A400CE01059698DF8093A5002D
:10080000CE01059693DF8093A60081E0E4C063E704
:1008100070E0C8019AD29E838D83009799F0039669
:100820009E838D83CE01059681DF8093A700CE0144
:1008300005967CDF8093A800CE01059677DF809334
:10084000A900E3CF67E770E0C8017FD29E838D8364
:10085000009749F003969E838D83CE01059666DF4F
:100860008093C700D2CF6BE770E0C8016ED29E8341
:100870008D83009749F003969E838D83CE01059664
:1008800055DF80936200C1CF6FE770E0C8015DD291
:100890009E838D83009771F004969E838D83CE0195
:1008A000059644DF8093C200CE0105963FDF80931A
:1008B000C300ABCF64E870E0C80147D29E838D834C
:1008C000009749F004969E838D83CE0105962EDF16
:1008D000809363009ACF69E870E0C80136D29E83A6
:1008E0008D83892B09F455C08ADD8DE290E06CDDA3
:1008F00086DD4AE050E0BE016F5F7F4F809163006C
:1009000090E03DD2CE0101966FDD79DD78DD84E3A4
:1009100090E05ADD74DD4AE050E0BE016F5F7F4F2A
:100920008091620090E02BD2CE0101965DDD67DD03
:1009300066DD8CE390E048DD62DD80916000882315
:1009400019F087E490E002C08FE490E03DDD57DDD0
:1009500056DD88E590E038DD52DD8CEB90E013DE6B
:100960004EDD8DE690E030DD4ADD81EC90E00BDE7F
:1009700046DD82E890E028DD42DD87EA90E003DE94
:100980003EDD8EE990E020DD3ADD84EA90E0FBDD9B
:100990003CCF60E970E0C801D8D19E838D83892B5C
:1009A00021F08CEB90E010DD30CF65E970E0C801FC
:1009B000CCD1009779F004969E838D83CE01059665
:1009C000B5DE882321F081E08093600004C010929E
:1009D00060001BCF80E026960FB6F894DEBF0FBEF6
:1009E000CDBFDF91CF911F910F910895F894CCDE88
:1009F000811106C08091BA009091BB00E5DC09C06E
:100A00008091BF009091C000DFDC80916000811177
:100A1000F3DD7894089580E481BB88E391E09093BE
:100A2000C0008093BF008FE391E09093BB00809360
:100A3000BA00B6DC92DC87E491E0C6DC19BC18BCD5
:100A40001FEF16BFCFEFD0E0DBBDCABD20DE2FEF1A
:100A500088E09DE3215080409040E1F700C0000015
:100A6000D9BDC8BD16BF1BBC1ABC2FEF88E09DE3E3
:100A7000215080409040E1F700C00000D9BDC8BDC2
:100A800016BEDBBDCABD2FEF88E09DE3215080403C
:100A90009040E1F700C00000D9BDC8BD16BFDBBD66
:100AA000CABD8091630081110EC083E08093630012
:100AB0008EEF8093C2001093C3001093A400109394
:100AC000A5001093A60089B7806889BF789486EF47
:100AD00094E09093650080936400FFCF1F920F9283
:100AE0000FB60F9211242F933F934F935F936F9301
:100AF0007F938F939F93AF93BF93EF93FF938091D7
:100B00006100982F91509093610081117FC0809176
:100B100062008093610080916300813009F053C0CE
:100B20004091C4008091BC0048130AC06091A700A6
:100B3000772767FD70958091A400E7DB8093C40060
:100B40004091C5008091BD0048130AC06091A80083
:100B5000772767FD70958091A500D7DB8093C5004E
:100B60004091C6008091BE0048130AC06091A90060
:100B7000772767FD70958091A600C7DB8093C6003C
:100B80008091BC009091C400891710F491E001C0DD
:100B90009FEF890F8093BC008091BD009091C500AC
:100BA000891710F491E001C09FEF890F8093BD0079
:100BB0008091BE009091C600891710F491E001C0A9
:100BC0009FEF890F12C0833091F48091C1008F5F35
:100BD0008093C1006091C1007091C2008091C300F8
:100BE0005BDC6093BC007093BD008093BE004091BD
:100BF000BE006091BD008091BC00C4DB8091C70045
:100C000080958CBF82B390E4892782BBFF91EF91DE
:100C1000BF91AF919F918F917F916F915F914F9114
:100C20003F912F910F900FBE0F901F9018950024A9
:100C300080FD060E660F11F08695D1F7802D089580
:100C40005527002480FF02C0060E571F660F771F2E
:100C50006115710521F096958795009799F7952F65
:100C6000802D0895FF27EE27BB27AA2760FF04C029
:100C7000A20FB31FE41FF51F220F331F441F551F80
:100C8000969587957795679589F70097760771F719
:100C9000CF01BD010895991B79E004C0991F9617F3
:100CA00008F0961B881F7A95C9F780950895A1E2F0
:100CB0001A2EAA1BBB1BFD010DC0AA1FBB1FEE1FD6
:100CC000FF1FA217B307E407F50720F0A21BB30B21
:100CD000E40BF50B661F771F881F991F1A9469F79D
:100CE00060957095809590959B01AC01BD01CF01F9
:100CF0000895FC0188279927E89421912032E9F38F
:100D0000293010F02E30C8F32B3239F02D3231F467
:100D1000689403C053D0820F911D219120532A3033
:100D2000C8F31EF4909581959F4F0895FB01DC0157
:100D30004150504048F001900D920020C9F701C089
:100D40001D9241505040E0F70895FB015191552309
:100D5000A9F0BF01DC014D9145174111E1F759F4AC
:100D6000CD010190002049F04D9140154111C9F38A
:100D7000FB014111EFCF81E090E001970895FB0165
:100D80009F01E8944230BCF04532ACF44A3029F47B
:100D900097FB1EF4909581959F4F642F772742D043
:100DA000805D8A330CF0895D8193CB010097A9F7B0
:100DB00016F45DE251931082C90124C0BC01880F72
:100DC000991F880F991F860F971F880F991F0895E5
:100DD000E199FECF1FBA8EBBE09A99278DB3089593
:100DE000262FE199FECF1FBA8EBBE09A81500DB23B
:100DF000021639F01CBA2DBB0FB6F894E29AE19AAC
:100E00000FBE0895DC01FC01672F71917723E1F794
:100E1000329704C07C916D9370836291AE17BF07C7
:100E2000C8F30895AA1BBB1B51E107C0AA1FBB1F33
:100E3000A617B70710F0A61BB70B881F991F5A9566
:100E4000A9F780959095BC01CD010895F894FFCF46
:100E500001646401E7000D0A00535247423A00530F
:100E60004D3A00534F3A0053573A0053443A005317
:100E700053563A00534D443A0073746174757300CD
:0A0E800068656C70005341563A009B
:00000001FF
