:10000000AAC0C4C0C3C0C2C0C1C067C5BFC0F1C11F
:10001000BDC0BCC0BBC0BAC0B9C0B8C0B7C0B6C014
:10002000B5C0B4C0B3C0B2C0B1C00D0A4F4B0D0AC9
:10003000000D0A4552520D0A002343757272656E17
:10004000742052474220436C697070696E67205675
:10005000616C7565733A002343757272656E742026
:10006000524742204F66667365742056616C756511
:10007000733A002343757272656E742048534C20A6
:1000800056616C7565733A002343757272656E74C0
:10009000205247422056616C7565733A006469735B
:1000A00061626C656400656E61626C656400234129
:1000B00075746F736176653A002344656C61793AB3
:1000C00000234D6F64653A000C0754696E79205225
:1000D000474220302E312C206769746875622E6388
:1000E0006F6D2F70756C7361723235362F74696E57
:1000F00079726762205C720A46756C6C2070726F50
:10010000746F636F6C207370656369666963617493
:10011000696F6E20617661696C61626C65206174E3
:10012000204769746875622E0D0A436F6D70696CA3
:1001300065643A20547565204A756C203132203050
:10014000303A33393A333120323031360D0A000D2E
:100150000A000D0A000011241FBECFE5D1E0DEBF6A
:10016000CDBF10E0A0E6B0E0EAE4FFE002C00590F9
:100170000D92A439B107D9F720E0A4E9B0E001C09D
:100180001D92A23CB207E1F77CD4DDC639CFE0E690
:10019000F1E080E090E020E0E43CF20728F03291CA
:1001A000229182279327F7CF08954F925F926F9203
:1001B0007F928F929F92AF92BF92CF92DF92EF92F7
:1001C000FF92CF93DF9300D000D0CDB7DEB7809100
:1001D000980090919900A0919A00B0919B00892B72
:1001E0008A2B8B2B59F4D3DFA0E0B0E080939800EA
:1001F00090939900A0939A00B0939B0080919C00EB
:1002000090919D00A0919E00B0919F00892B8A2B18
:100210008B2B59F4BCDFA0E0B0E080939C0090935E
:100220009D00A0939E00B0939F0040909800509036
:10023000990060909A0070909B00C301B2018827DA
:10024000992729E630E940E050E069D549015A0193
:10025000230166247724480C591C6A1C7B1C40929D
:1002600098005092990060929A0070929B002091A1
:100270009C0030919D0040919E0050919F002983E9
:100280003A834B835C83CA01B9018827992720E50B
:1002900036E440E050E043D549015A0129813A81D2
:1002A0004B815C81CA01AA27BB27880E991EAA1E12
:1002B000BB1E80929C0090929D00A0929E00B092E6
:1002C0009F00320155244424C301B201680D791DF9
:1002D0008A1D9B1D0F900F900F900F90DF91CF9173
:1002E000FF90EF90DF90CF90BF90AF909F908F9056
:1002F0007F906F905F904F900895CF92DF92EF9232
:10030000FF921F93CF93DF93EB01142FC82ED12CB4
:10031000E12CF12C4ADFA7019601C1D46C0F7D1F9F
:1003200077FD08C0CB016F3F710529F024F08FEFF6
:1003300090E001C080E0811769F3DF91CF911F91B8
:10034000FF90EF90DF90CF90089587B38C6187BBCB
:1003500083EF80BF83E083BF81EF8FBD8BE08EBDD5
:100360008FEF86BF8FEF90E09BBD8ABD99BD88BDA2
:1003700008952FEF30E0F901E81BF109F9BDE8BD60
:10038000409546BF261B31093BBD2ABD089583B168
:10039000866083B988E18AB9579A12B881E889B929
:1003A00082E591E09093B7008093B60008955D9B3D
:1003B000FECF8CB90895CF93DF93EC01CE01FE01FF
:1003C0002491222329F02196FC018491F0DFF6CFBD
:1003D000DF91CF910895CF93DF93EC01899188232A
:1003E00011F0E5DFFBCFDF91CF9108958FE491E02D
:1003F000E2CF1F920F920FB60F9211242F933F93CB
:100400004F935F936F937F938F939F93AF93BF931C
:10041000EF93FF938CB1A0919500E1E0EA0FE09398
:100420009500B0E0AA55BF4F8C93F0E0EA55FF4F1E
:1004300010828CB9909195009F3020F48A3011F091
:100440008D3099F4109295008091B6009091B7008C
:10045000B2DF81E080939400E0919600F0919700E4
:10046000309719F086EA90E00995FF91EF91BF91DE
:10047000AF919F918F917F916F915F914F913F913C
:100480002F910F900FBE0F901F9018952F923F92B3
:100490004F925F926F927F928F929F92AF92BF9294
:1004A000CF92DF92EF92FF920F931F93CF93DF9340
:1004B000CDB7DEB72A970FB6F894DEBF0FBECDBF1B
:1004C0007C017A876987FC010281602F70E080E0FF
:1004D00090E0218107FD13C0822E912CA12CB12C1C
:1004E000A50194013F5F4F4F5F4F17D439014A0177
:1004F000BB2797FCBA95A92D982D872D26C030E0F3
:1005000040E050E04B015C01820E931EA41EB51E1C
:10051000BA2CA92C982C882400D429833A834B83A5
:100520005C836D837E838F839887D501C401298185
:100530003A814B815C81821B930BA40BB50B892FF5
:100540009A2FAB2FBB27A7FDBA953C0118161906A9
:1005500034F0E985FA851282118210828BC0F7018E
:10056000808110E0000F111F061917091801110FE3
:100570004408550890E066E070E080D3E92EFF243F
:10058000E7FCFA94AC01990F660B770BC7010F2CAF
:10059000000CAA0BBB0BBA2FA92F982F88279A0102
:1005A000AB01281B390B4A0B5B0B4301770CAA08E4
:1005B000BB08C501B401B1D3D901F42FE52FC501A2
:1005C000B40162197309840995099D014F2F5E2FAB
:1005D000A4D3A32FF42FE52F622F7A2F8F2F9E2FD6
:1005E000A50194017ED3772757FD7A95652F542F67
:1005F000432FD201C101840F951FA61FB71F841A74
:10060000950AA60AB70AF3E0EF16F10419F14CF4C3
:1006100031E0E316F10491F042E0E416F104A1F0B8
:1006200008C054E0E516F104D1F0E5E0EE16F1045F
:10063000E1F0E985FA856082818304C0E985FA8565
:1006400080826182028316C0E985FA850083618217
:10065000828310C0E985FA850083818204C0E98520
:10066000FA8580830183628205C0E985FA8560820C
:10067000018382822A960FB6F894DEBF0FBECDBFEB
:10068000DF91CF911F910F91FF90EF90DF90CF906E
:10069000BF90AF909F908F907F906F905F904F90A2
:1006A0003F902F90089588EC90E085CEEF92FF92D6
:1006B0000F931F93CF93DF9300D000D0CDB7DEB759
:1006C0007C01FC010081118143E050E0B801CE01C2
:1006D0000196C2D31C820D5F1F4FF7011183008367
:1006E000CE0101969CD30F900F900F900F90DF9149
:1006F000CF911F910F91FF90EF9008950F931F934B
:10070000CF93DF9300D000D0CDB7DEB78C01FC01D2
:1007100080814AE0BE016F5F7F4F90E0C6D3CE017B
:10072000019659DE63DEF80181814AE0BE016F5F08
:100730007F4F90E0BAD3CE0101964DDE57DEF8012F
:1007400082814AE0BE016F5F7F4F90E0AED3CE0161
:10075000019641DE4BDE0F900F900F900F90DF91CE
:10076000CF911F910F9108950F931F93CF93DF9314
:1007700000D000D000D0CDB7DEB78C0166E670E0C7
:100780007AD39E838D830097B1F021E0209365009A
:1007900005969E838D83CE01059688DF8093B800F1
:1007A000CE01059683DF8093B900CE0105967EDFEA
:1007B0008093BA001AC06CE670E0C8015CD39E83D7
:1007C0008D830097A1F003969E838D83CE010596BD
:1007D0006DDF8093A000CE01059668DF8093A100B5
:1007E000CE01059663DF8093A20081E0E5C060E75B
:1007F00070E0C80140D39E838D83009799F00396E3
:100800009E838D83CE01059651DF8093A300CE0198
:1008100005964CDF8093A400CE01059647DF8093B8
:10082000A500E3CF64E770E0C80125D39E838D83E4
:10083000009759F003969E838D83CE01059636DF8F
:100840009093640080936300D0CF68E770E0C801A4
:1008500012D39E838D83009709F105969E838D8325
:10086000CE01059623DF1816190614F48093BB00F9
:10087000CE0105961BDF1816190614F48093BC00F0
:10088000CE01059613DF1816190614F48093BD00E7
:1008900068EB70E08BEB90E0F9DDA7CF6EE770E0DE
:1008A000C801E9D29E838D83009749F004969E8308
:1008B0008D83CE010596FADE8093650096CF63E8BE
:1008C00070E0C801D8D29E838D83892B09F454C06F
:1008D0008DDD81EC90E06FDD89DD809165004AE07F
:1008E000BE016F5F7F4F90E0E0D2CE01019673DDD5
:1008F0007DDD7CDD89EB90E05EDD78DD4AE0BE01E8
:100900006F5F7F4F8091630090916400CED2CE01E3
:10091000019661DD6BDD6ADD8EEA90E04CDD66DD1F
:1009200080916000882319F086EA90E002C08DE98A
:1009300090E041DD5BDD5ADD88E890E03CDD56DD8E
:1009400088EB90E0DBDE52DD83E790E034DD4EDDC6
:100950008BEB90E0D3DE4ADD87E590E02CDD46DDD1
:1009600083EA90E0CBDE42DD89E390E024DD3EDDEA
:1009700080EA90E0C3DE39CF6AE870E0C8017BD23C
:100980009E838D83892B11F08EDE2FCF6FE870E070
:10099000C80171D2009779F004969E838D83CE01B1
:1009A000059684DE882321F081E08093600004C0F6
:1009B000109260001ACF80E026960FB6F894DEBF42
:1009C0000FBECDBFDF91CF911F910F910895CF93AF
:1009D000DF936091650080E190E0A4D2C8EBD0E0A5
:1009E000688181E190E09ED2698182E190E09AD2B3
:1009F0006A8183E190E096D2CBEBD0E0688184E11C
:100A000090E090D2698185E190E08CD26A8186E1A4
:100A100090E088D2C3EAD0E0688187E190E082D29A
:100A2000698188E190E07ED26A8189E190E07AD2A2
:100A3000609163008AE190E075D2C0EAD0E06881FD
:100A40008BE190E06FD269818CE190E06BD26A819A
:100A50008DE190E0DF91CF9165C2F89485DE811140
:100A600004C081E390E0A7DC07C08AE290E0A3DC49
:100A7000809160008111ABDF789408951092650039
:100A8000089580E481BB83DC60DCF8DF2FEF30E089
:100A900039BD28BD8FEF86BF3BBD2ABD9091650053
:100AA00091110FC093E0909365009EEF9093BC006E
:100AB0009FE79093BD008093A0008093A100809356
:100AC000A200F1DD8DE295E090939700809396006F
:100AD00089B7806889BF7894FFCF1F920F920FB6B5
:100AE0000F9211242F933F934F935F936F937F93B4
:100AF0008F939F93AF93BF93EF93FF938091610088
:100B0000909162009C012150310930936200209342
:100B10006100892B09F0A1C080916300909164006D
:100B20006AE070E0ABD090936200809361008091A6
:100B30006500823009F053C04091BE008091B8003A
:100B400048130AC06091A300062E000C770B809119
:100B5000A000D3DB8093BE004091BF008091B9001C
:100B600048130AC06091A400062E000C770B8091F8
:100B7000A100C3DB8093BF004091C0008091BA0008
:100B800048130AC06091A500062E000C770B8091D7
:100B9000A200B3DB8093C0008091B8009091BE00AA
:100BA000891710F09FEF01C091E0890F8093B80082
:100BB0008091B9009091BF00891710F09FEF01C09C
:100BC00091E0890F8093B9008091BA009091C000A4
:100BD000891710F09FEF01C091E0890F31C0833079
:100BE00059F48091BB008F5F8093BB0068EB70E08D
:100BF0008BEB90E04BDC26C0843021F56091A300A4
:100C0000062E000C770B4091B8008091A00075DB98
:100C10008093B8006091A400062E000C770B4091E1
:100C2000B9008091A10069DB8093B9006091A500B3
:100C3000062E000C770B4091BA008091A2005DDB7C
:100C40008093BA004091BA006091B9008091B800D9
:100C500090DB92B380E4892782BBFF91EF91BF9133
:100C6000AF919F918F917F916F915F914F913F9144
:100C70002F910F900FBE0F901F90189500245527AD
:100C800004C0080E591F880F991F009729F0769508
:100C90006795B8F37105B9F7802D952F0895A1E2F6
:100CA0001A2EAA1BBB1BFD010DC0AA1FBB1FEE1FE6
:100CB000FF1FA217B307E407F50720F0A21BB30B31
:100CC000E40BF50B661F771F881F991F1A9469F7AD
:100CD00060957095809590959B01AC01BD01CF0109
:100CE0000895052E97FB16F400940FD057FD05D0FC
:100CF000D6DF07FC02D046F408C0509540953095E9
:100D000021953F4F4F4F5F4F089590958095709577
:100D100061957F4F8F4F9F4F089568940013E8941B
:100D2000A0E0B0E0E5E9F6E01DC0EFEFE7F959011A
:100D30006A015E23550FEE08FE2C87019B01AC0172
:100D40009E23990F660B762FCB013BD0CDB7DEB734
:100D5000EAE024C02F923F924F925F926F927F926F
:100D60008F929F92AF92BF92CF92DF92EF92FF92BB
:100D70000F931F93CF93DF93CDB7DEB7CA1BDB0B67
:100D80000FB6F894DEBF0FBECDBF09942A8839880C
:100D900048885F846E847D848C849B84AA84B98413
:100DA000C884DF80EE80FD800C811B81AA81B9811F
:100DB000CE0FD11D0FB6F894DEBF0FBECDBFED0133
:100DC0000895DF93CF939F92A0E49A2E0024D00140
:100DD000E001F00116950795F794E794D794C7942E
:100DE000B794A79448F41068A20FB31FC41FD51F6F
:100DF000E61FF71F081E191E220F331F441F551F21
:100E0000661F771F881F991F9A9421F79D01AE01D5
:100E1000BF01C00111249F90CF91DF910895FC0183
:100E200088279927E89421912032E9F3293010F09E
:100E30002E30C8F32B3239F02D3231F4689403C0D0
:100E40003ED0820F911D219120532A30C8F31EF409
:100E5000909581959F4F0895FB01DC0141505040D2
:100E600048F001900D920020C9F701C01D92415039
:100E70005040E0F70895FB0151915523A9F0BF01BF
:100E8000DC014D9145174111E1F759F4CD01019075
:100E9000002049F04D9140154111C9F3FB0141116A
:100EA000EFCF81E090E001970895BB274A3031F4FD
:100EB000992322F4BDE2909581959F4F0BC0BC0110
:100EC000880F991F880F991F860F971F880F991FEA
:100ED0000895BB27FB015527AA27880F991FAA1F32
:100EE000A41710F0A41B83955051B9F7A05DAA3345
:100EF00008F0A95DA193009779F7B111B193119210
:100F0000CB0100C0DC01FC01672F71917723E1F771
:100F1000329704C07C916D9370836291AE17BF07C6
:100F2000C8F30895262FE199FECF8EBBE09A815039
:100F30000DB2021639F01CBA2DBB0FB6F894E29A26
:0A0F4000E19A0FBE0895F894FFCF68
:100F4A00016400640002535247423A00534D3A008A
:100F5A00534F3A0053443A005348534C3A00534DC6
:100F6A00443A007374617475730068656C70005359
:040F7A0041563A00A2
:00000001FF
