:10000000A9C0C3C0C2C0C1C0C0C0F1C4BEC0D7C1B6
:10001000BCC0BBC0BAC0B9C0B8C0B7C0B6C0B5C01C
:10002000B4C0B3C0B2C0B1C0B0C00D0A000D0A0068
:100030000C0754696E792052474220302E312C2013
:100040006769746875622E636F6D2F70756C73616C
:10005000723235362F74696E79726762200D0A46E6
:10006000756C6C2070726F746F636F6C2073706549
:1000700063696669636174696F6E20617661696C3A
:1000800061626C65206174204769746875622E0D29
:100090000A436F6D70696C65643A20536174204A3D
:1000A000616E2030342031353A33353A30372032E2
:1000B0003031340D0A00234D6F64653A00234465E6
:1000C0006C61793A00234175746F736176653A000B
:1000D000656E61626C65640064697361626C65641D
:1000E000002343757272656E742052474220566138
:1000F0006C7565733A002343757272656E7420489F
:1001000053562056616C7565733A002343757272BD
:10011000656E7420524742204F66667365742056A0
:10012000616C7565733A002343757272656E742055
:1001300052474220436C697070696E672056616C4B
:100140007565733A000D0A4552520D0A000D0A4FAB
:100150004B0D0A0011241FBECFE5D1E0DEBFCDBF9D
:1001600010E0A0E6B0E0EAE5FDE002C005900D92E7
:10017000A239B107D9F720E0A2E9B0E001C01D9291
:10018000A03CB207E1F708D4E6C53ACFE0E6F1E0DB
:1001900020E030E004C0929182912827392780E046
:1001A000E23CF807C0F7C90108958F929F92AF9281
:1001B000BF92CF92DF92EF92FF920F931F938091A5
:1001C000960090919700A0919800B0919900892B8A
:1001D0008A2B8B2B59F4DADFA0E0B0E080939600F5
:1001E00090939700A0939800B093990080919A0003
:1001F00090919B00A0919C00B0919D00892B8A2B2F
:100200008B2B59F4C3DFA0E0B0E080939A00909369
:100210009B00A0939C00B0939D00809096009090CE
:100220009700A0909800B0909900C501B40188276C
:10023000992729E630E940E050E099D46B017C0130
:100240004501AA24BB24C80CD91CEA1CFB1CC09283
:100250009600D0929700E0929800F09299008090DA
:100260009A0090909B00A0909C00B0909D00C501CA
:10027000B4018827992720E536E440E050E077D4A0
:100280004501AA24BB24680D791D8A1D9B1D60931E
:100290009A0070939B0080939C0090939D00960120
:1002A00011270027060F171F281F391FB801C90182
:1002B0001F910F91FF90EF90DF90CF90BF90AF9084
:1002C0009F908F900895CF92DF92EF92FF921F93AD
:1002D000CF93DF93EB01142FC82ED12CE12CF12CFE
:1002E00064DFA701960168D46C0F7D1F77FD08C0FD
:1002F0006F3F710519F014F06FEF70E0862F01C0A9
:1003000080E0811769F3DF91CF911F91FF90EF900B
:10031000DF90CF90089587B38C6187BB83EF80BF58
:1003200083E083BF81EF8FBD8BE08EBD8FEF86BFF3
:100330008FEF90E09BBD8ABD99BD88BD08952FEFDA
:1003400030E0F901E81BF109F9BDE8BD409546BF71
:10035000261B31093BBD2ABD089583B1866083B950
:1003600088E18AB9579A12B881E889B98AE290E09F
:100370009093B5008093B40008955D9BFECF8CB937
:100380000895CF93DF93EC0104C02196FC01849182
:10039000F4DFCE01FE0124912111F7CFDF91CF913F
:1003A0000895CF93DF93EC0101C0E7DF89918111BC
:1003B000FCCFDF91CF9108958DE290E0E2CF1F92C4
:1003C0000F920FB60F9211242F933F934F935F9389
:1003D0006F937F938F939F93AF93BF93EF93FF930D
:1003E0008CB190919300E92FF0E0EC55FF4F8083A2
:1003F0009F5F90939300E92FF0E0EC55FF4F108240
:100400008CB99F3020F48A3011F08D3099F410921D
:1004100093008091B4009091B500B3DF81E08093A8
:100420009200E0919400F0919500309719F084EAE1
:1004300090E00995FF91EF91BF91AF919F918F91BE
:100440007F916F915F914F913F912F910F900FBED0
:100450000F901F901895CF92DF92FF920F931F93EA
:10046000CF93DF93A62FC72FF82E711103C0682FEB
:10047000782F60C0862F6BE293D3482FD0E0EFEF48
:10048000F0E0BF016C1B7D0B8F2D90E05ED3292F18
:10049000332727FD3A95D22E842F90E065ED7FEF2C
:1004A00054D38A0F66E048D3082F10E0CE01B8017C
:1004B0004CD3892F990F990BBF01681B790B8F2D96
:1004C00090E043D3A92FBB27A7FDBA95CA2EBF0141
:1004D000601B710BCE0139D3892F990F990BBF0186
:1004E000681B790B8F2D90E030D3892F990F990BD2
:1004F000423071F028F4442341F0413099F416C0A1
:10050000433051F0443071F409C06F2DA82F10C052
:10051000622FAF2D282F0CC0622F02C0682FA22F90
:100520002F2D06C06F2DAD2D2C2D02C06A2FAF2DA3
:100530007A2F822FDF91CF911F910F91FF90DF9043
:10054000CF90089580E390E01CCFEF92FF920F933D
:100550001F93CF93DF9300D000D0CDB7DEB78C01CF
:10056000FC01E080F18043E050E0B701CE0101964C
:1005700062D31C82F3E0EF0EF11CF801F182E082FD
:10058000CE0101963BD38093B8009C013327C9016B
:100590000F900F900F900F90DF91CF911F910F91BF
:1005A000FF90EF9008950F931F93CF93DF9300D0A8
:1005B00000D0CDB7DEB78C014AE050E0BE016F5FDE
:1005C0007F4FFC01808190E05FD3CE010196E9DE90
:1005D000F3DE4AE050E0BE016F5F7F4FF80181819A
:1005E00090E052D3CE010196DCDEE6DE4AE050E038
:1005F000BE016F5F7F4FF801828190E045D3CE014D
:100600000196CFDED9DE0F900F900F900F90DF9103
:10061000CF911F910F9108950F931F93CF93DF9365
:1006200000D000D000D0CDB7DEB78C0164E670E01A
:1006300011D39E838D830097B1F022E02093630055
:1006400005969E838D83CE0105967FDF8093B6004D
:10065000CE0105967ADF8093B700CE01059675DF4F
:100660008093B8001AC06AE670E0C801F3D29E8396
:100670008D830097A1F003969E838D83CE0105960E
:1006800064DF80939E00CE0105965FDF80939F001C
:10069000CE0105965ADF8093A00081E0D1C06EE6BE
:1006A00070E0C801D7D29E838D83009799F003969E
:1006B0009E838D83CE01059648DF8093A100CE01F5
:1006C000059643DF8093A200CE0105963EDF80931E
:1006D000A300E3CF62E770E0C801BCD29E838D83A4
:1006E000009749F003969E838D83CE0105962DDFFA
:1006F00080936200D2CF66E770E0C801ABD29E83E0
:100700008D83009771F004969E838D83CE010596AC
:100710001CDF8093BA00CE01059617DF8093BB00E3
:10072000BCCF6BE770E0C80195D29E838D830097A4
:1007300049F004969E838D83CE01059606DF809353
:100740006300ABCF60E870E0C80184D29E838D83E4
:10075000892B09F455C030DE86EB90E012DE2CDEEA
:100760004AE050E0BE016F5F7F4F8091630090E0F0
:100770008BD2CE01019615DE1FDE1EDE8DEB90E0E2
:1007800000DE1ADE4AE050E0BE016F5F7F4F8091CD
:10079000620090E079D2CE01019603DE0DDE0CDE20
:1007A00085EC90E0EEDD08DE80916000882319F092
:1007B00080ED90E002C088ED90E0E3DDFDDDFCDD42
:1007C00081EE90E0DEDDF8DD86EB90E0ECDEF4DD3E
:1007D00086EF90E0D6DDF0DD89EB90E0E4DEECDD45
:1007E0008BE091E0CEDDE8DD81EA90E0DCDEE4DD67
:1007F00087E291E0C6DDE0DD8EE990E0D4DE4DCF0A
:1008000067E870E0C80126D29E838D83892B11F0A2
:1008100099DE43CF6CE870E0C8011CD2009779F0F4
:1008200004969E838D83CE0105968FDE882321F06A
:1008300081E08093600004C0109260002ECF80E0C1
:1008400026960FB6F894DEBF0FBECDBFDF91CF91D5
:100850001F910F9108956091630080E190E045D26F
:100860006091B60081E190E040D26091B70082E1F2
:1008700090E03BD26091B80083E190E036D2609185
:10088000B90084E190E031D26091BA0085E190E056
:100890002CD26091BB0086E190E027D26091A1004C
:1008A00087E190E022D26091A20088E190E01DD221
:1008B0006091A30089E190E018D2609162008AE122
:1008C00090E013D260919E008BE190E00ED2609197
:1008D0009F008CE190E009D26091A0008DE190E052
:1008E00004C2F89499DE811104C085E491E049DDE9
:1008F00007C08DE491E045DD809160008111ABDFA0
:100900007894089580E190E0E8D180936300882393
:1009100009F441C081E190E0E0D18093B60082E12A
:1009200090E0DBD18093B70083E190E0D6D1809353
:10093000B80084E190E0D1D18093B90085E190E0E6
:10094000CCD18093BA0086E190E0C7D18093BB0000
:1009500087E190E0C2D18093A10088E190E0BDD111
:100960008093A20089E190E0B8D18093A3008AE14E
:1009700090E0B3D1809362008BE190E0AED18093A0
:100980009E008CE190E0A9D180939F008DE190E0E2
:10099000A4D18093A000089580E481BBDEDCBBDCA1
:1009A000B1DF8FEF90E099BD88BD2FEF26BF9BBDD3
:1009B0008ABD8091630081110EC083E08093630043
:1009C0008EEF8093BA002093BB0020939E0020936B
:1009D0009F002093A000B6DD81E794E090939500FE
:1009E0008093940089B7806889BF7894FFCF1F9265
:1009F0000F920FB60F9211242F933F934F935F9353
:100A00006F937F938F939F93AF93BF93EF93FF93D6
:100A100080916100982F91509093610081117BC06B
:100A2000809162008093610080916300813009F0C1
:100A300053C04091BC008091B60048130AC0609139
:100A4000A100772767FD709580919E003CDC809324
:100A5000BC004091BD008091B70048130AC060916E
:100A6000A200772767FD709580919F002CDC809312
:100A7000BD004091BE008091B80048130AC060914B
:100A8000A300772767FD70958091A0001CDC809300
:100A9000BE008091B6009091BC00891710F491E0DF
:100AA00001C09FEF890F8093B6008091B7009091AD
:100AB000BD00891710F491E001C09FEF890F80936A
:100AC000B7008091B8009091BE00891710F491E0B2
:100AD00001C09FEF890F12C0833091F48091B9005B
:100AE0008F5F8093B9006091B9007091BA008091D6
:100AF000BB00B1DC6093B6007093B7008093B80080
:100B00004091B8006091B7008091B60018DC82B3C4
:100B100090E4892782BBFF91EF91BF91AF919F91A4
:100B20008F917F916F915F914F913F912F910F9096
:100B30000FBE0F901F901895002480FD060E660FC3
:100B400011F08695D1F7802D08955527002480FF58
:100B500002C0060E571F660F771F6115710521F041
:100B600096958795009799F7952F802D0895FF27E3
:100B7000EE27BB27AA2760FF04C0A20FB31FE41F04
:100B8000F51F220F331F441F551F969587957795A4
:100B9000679589F70097760771F7CF01BD01089532
:100BA000991B79E004C0991F961708F0961B881FBF
:100BB0007A95C9F780950895A1E21A2EAA1BBB1B4E
:100BC000FD010DC0AA1FBB1FEE1FFF1FA217B30719
:100BD000E407F50720F0A21BB30BE40BF50B661F2F
:100BE000771F881F991F1A9469F7609570958095F3
:100BF00090959B01AC01BD01CF010895FC018827B0
:100C00009927E89421912032E9F3293010F02E3011
:100C1000C8F32B3239F02D3231F4689403C053D02D
:100C2000820F911D219120532A30C8F31EF4909514
:100C300081959F4F0895FB01DC014150504048F0E1
:100C400001900D920020C9F701C01D924150504003
:100C5000E0F70895FB0151915523A9F0BF01DC0194
:100C60004D9145174111E1F759F4CD010190002054
:100C700049F04D9140154111C9F3FB014111EFCFEE
:100C800081E090E001970895FB019F01E8944230D4
:100C9000BCF04532ACF44A3029F497FB1EF4909531
:100CA00081959F4F642F772742D0805D8A330CF067
:100CB000895D8193CB010097A9F716F45DE251930A
:100CC0001082C90124C0BC01880F991F880F991F89
:100CD000860F971F880F991F0895E199FECF1FBABD
:100CE0008EBBE09A99278DB30895262FE199FECF08
:100CF0001FBA8EBBE09A81500DB2021639F01CBAB1
:100D00002DBB0FB6F894E29AE19A0FBE0895DC016C
:100D1000FC01672F71917723E1F7329704C07C9132
:100D20006D9370836291AE17BF07C8F30895AA1B35
:100D3000BB1B51E107C0AA1FBB1FA617B70710F0C6
:100D4000A61BB70B881F991F5A95A9F780959095F8
:0A0D5000BC01CD010895F894FFCF17
:100D5A0001646401535247423A00534D3A00534FDB
:100D6A003A0053443A005353563A00534D443A001A
:100D7A007374617475730068656C70005341563AF8
:020D8A00000067
:00000001FF
